{
  "contractName": "ProcessesContract",
  "abi": [
    {
      "inputs": [],
      "stateMutability": "nonpayable",
      "type": "constructor"
    },
    {
      "anonymous": false,
      "inputs": [
        {
          "indexed": false,
          "internalType": "uint256",
          "name": "id",
          "type": "uint256"
        },
        {
          "indexed": false,
          "internalType": "string",
          "name": "title",
          "type": "string"
        },
        {
          "indexed": false,
          "internalType": "string",
          "name": "process",
          "type": "string"
        },
        {
          "indexed": false,
          "internalType": "string",
          "name": "description",
          "type": "string"
        },
        {
          "indexed": false,
          "internalType": "uint256",
          "name": "createdAt",
          "type": "uint256"
        }
      ],
      "name": "ProcessCreated",
      "type": "event"
    },
    {
      "inputs": [],
      "name": "processCounter",
      "outputs": [
        {
          "internalType": "uint256",
          "name": "",
          "type": "uint256"
        }
      ],
      "stateMutability": "view",
      "type": "function"
    },
    {
      "inputs": [
        {
          "internalType": "uint256",
          "name": "",
          "type": "uint256"
        }
      ],
      "name": "processes",
      "outputs": [
        {
          "internalType": "uint256",
          "name": "id",
          "type": "uint256"
        },
        {
          "internalType": "string",
          "name": "title",
          "type": "string"
        },
        {
          "internalType": "string",
          "name": "process",
          "type": "string"
        },
        {
          "internalType": "string",
          "name": "description",
          "type": "string"
        },
        {
          "internalType": "uint256",
          "name": "createdAt",
          "type": "uint256"
        }
      ],
      "stateMutability": "view",
      "type": "function"
    },
    {
      "inputs": [
        {
          "internalType": "string",
          "name": "_title",
          "type": "string"
        },
        {
          "internalType": "string",
          "name": "_process",
          "type": "string"
        },
        {
          "internalType": "string",
          "name": "_description",
          "type": "string"
        }
      ],
      "name": "createProcess",
      "outputs": [],
      "stateMutability": "nonpayable",
      "type": "function"
    }
  ],
  "bytecode": "0x6080604052600080553480156200001557600080fd5b50620000c86040518060400160405280601181526020017f4d69207072696d65722070726f6365736f0000000000000000000000000000008152506040518060400160405280600781526020017f50726f6365736f000000000000000000000000000000000000000000000000008152506040518060400160405280601581526020017f536f7920656c207072696d65722070726f6365736f0000000000000000000000815250620000ce60201b60201c565b620004a3565b600080815480929190620000e290620002c9565b91905055506040518060a0016040528060005481526020018481526020018381526020018281526020014281525060016000805481526020019081526020016000206000820151816000015560208201518160010190805190602001906200014c929190620001e0565b5060408201518160020190805190602001906200016b929190620001e0565b5060608201518160030190805190602001906200018a929190620001e0565b50608082015181600401559050507f6bbb6619d3567bfe7c2c1a35bb0ebe9bae1a1917e4157025a1d99c66f2623fd360005484848442604051620001d3959493929190620003cc565b60405180910390a1505050565b828054620001ee906200046d565b90600052602060002090601f0160209004810192826200021257600085556200025e565b82601f106200022d57805160ff19168380011785556200025e565b828001600101855582156200025e579182015b828111156200025d57825182559160200191906001019062000240565b5b5090506200026d919062000271565b5090565b5b808211156200028c57600081600090555060010162000272565b5090565b7f4e487b7100000000000000000000000000000000000000000000000000000000600052601160045260246000fd5b6000819050919050565b6000620002d682620002bf565b91507fffffffffffffffffffffffffffffffffffffffffffffffffffffffffffffffff8214156200030c576200030b62000290565b5b600182019050919050565b6200032281620002bf565b82525050565b600081519050919050565b600082825260208201905092915050565b60005b838110156200036457808201518184015260208101905062000347565b8381111562000374576000848401525b50505050565b6000601f19601f8301169050919050565b6000620003988262000328565b620003a4818562000333565b9350620003b681856020860162000344565b620003c1816200037a565b840191505092915050565b600060a082019050620003e3600083018862000317565b8181036020830152620003f781876200038b565b905081810360408301526200040d81866200038b565b905081810360608301526200042381856200038b565b905062000434608083018462000317565b9695505050505050565b7f4e487b7100000000000000000000000000000000000000000000000000000000600052602260045260246000fd5b600060028204905060018216806200048657607f821691505b602082108114156200049d576200049c6200043e565b5b50919050565b6108c080620004b36000396000f3fe608060405234801561001057600080fd5b50600436106100415760003560e01c806351b7ffc614610046578063579e51c71461006257806391d36fc714610096575b600080fd5b610060600480360381019061005b919061058d565b6100b4565b005b61007c6004803603810190610077919061066a565b6101bc565b60405161008d95949392919061072e565b60405180910390f35b61009e61038a565b6040516100ab9190610796565b60405180910390f35b6000808154809291906100c6906107e0565b91905055506040518060a00160405280600054815260200184815260200183815260200182815260200142815250600160008054815260200190815260200160002060008201518160000155602082015181600101908051906020019061012e929190610390565b50604082015181600201908051906020019061014b929190610390565b506060820151816003019080519060200190610168929190610390565b50608082015181600401559050507f6bbb6619d3567bfe7c2c1a35bb0ebe9bae1a1917e4157025a1d99c66f2623fd3600054848484426040516101af95949392919061072e565b60405180910390a1505050565b60016020528060005260406000206000915090508060000154908060010180546101e590610858565b80601f016020809104026020016040519081016040528092919081815260200182805461021190610858565b801561025e5780601f106102335761010080835404028352916020019161025e565b820191906000526020600020905b81548152906001019060200180831161024157829003601f168201915b50505050509080600201805461027390610858565b80601f016020809104026020016040519081016040528092919081815260200182805461029f90610858565b80156102ec5780601f106102c1576101008083540402835291602001916102ec565b820191906000526020600020905b8154815290600101906020018083116102cf57829003601f168201915b50505050509080600301805461030190610858565b80601f016020809104026020016040519081016040528092919081815260200182805461032d90610858565b801561037a5780601f1061034f5761010080835404028352916020019161037a565b820191906000526020600020905b81548152906001019060200180831161035d57829003601f168201915b5050505050908060040154905085565b60005481565b82805461039c90610858565b90600052602060002090601f0160209004810192826103be5760008555610405565b82601f106103d757805160ff1916838001178555610405565b82800160010185558215610405579182015b828111156104045782518255916020019190600101906103e9565b5b5090506104129190610416565b5090565b5b8082111561042f576000816000905550600101610417565b5090565b6000604051905090565b600080fd5b600080fd5b600080fd5b600080fd5b6000601f19601f8301169050919050565b7f4e487b7100000000000000000000000000000000000000000000000000000000600052604160045260246000fd5b61049a82610451565b810181811067ffffffffffffffff821117156104b9576104b8610462565b5b80604052505050565b60006104cc610433565b90506104d88282610491565b919050565b600067ffffffffffffffff8211156104f8576104f7610462565b5b61050182610451565b9050602081019050919050565b82818337600083830152505050565b600061053061052b846104dd565b6104c2565b90508281526020810184848401111561054c5761054b61044c565b5b61055784828561050e565b509392505050565b600082601f83011261057457610573610447565b5b813561058484826020860161051d565b91505092915050565b6000806000606084860312156105a6576105a561043d565b5b600084013567ffffffffffffffff8111156105c4576105c3610442565b5b6105d08682870161055f565b935050602084013567ffffffffffffffff8111156105f1576105f0610442565b5b6105fd8682870161055f565b925050604084013567ffffffffffffffff81111561061e5761061d610442565b5b61062a8682870161055f565b9150509250925092565b6000819050919050565b61064781610634565b811461065257600080fd5b50565b6000813590506106648161063e565b92915050565b6000602082840312156106805761067f61043d565b5b600061068e84828501610655565b91505092915050565b6106a081610634565b82525050565b600081519050919050565b600082825260208201905092915050565b60005b838110156106e05780820151818401526020810190506106c5565b838111156106ef576000848401525b50505050565b6000610700826106a6565b61070a81856106b1565b935061071a8185602086016106c2565b61072381610451565b840191505092915050565b600060a0820190506107436000830188610697565b818103602083015261075581876106f5565b9050818103604083015261076981866106f5565b9050818103606083015261077d81856106f5565b905061078c6080830184610697565b9695505050505050565b60006020820190506107ab6000830184610697565b92915050565b7f4e487b7100000000000000000000000000000000000000000000000000000000600052601160045260246000fd5b60006107eb82610634565b91507fffffffffffffffffffffffffffffffffffffffffffffffffffffffffffffffff82141561081e5761081d6107b1565b5b600182019050919050565b7f4e487b7100000000000000000000000000000000000000000000000000000000600052602260045260246000fd5b6000600282049050600182168061087057607f821691505b6020821081141561088457610883610829565b5b5091905056fea26469706673582212203690fc070867f5cb36f9e2f7009fcbc5b9e04d7ae5a3f09982502a7f11d888b464736f6c634300080a0033",
  "immutableReferences": {},
  "source": "// SPDX-License-Identifier: MIT\npragma solidity ^0.8.6;\n\ncontract ProcessesContract {\n    uint256 public processCounter = 0;\n\n    struct Process { //Task, struct es un tipo de Dato\n        uint256 id;\n        string title;\n        string process;\n        string description;\n        //bool done;\n        uint256 createdAt;\n    }\n\n    //TaskCreated\n    event ProcessCreated( \n        uint256 id,\n        string title,\n        string process,\n        string description,\n        uint256 createdAt\n    );\n    //bool done,\n\n    //event TaskToggledDone(uint256 id, bool done);\n\n\n    //mapping(uint256 => Task) public tasks;\n    mapping(uint256 => Process) public processes; //conjnunto de datos que contienen par y valor\n\n    \n    constructor() {\n        createProcess(\"Mi primer proceso\", \"Proceso\",\"Soy el primer proceso\");\n    }\n    \n\n    function createProcess(string memory _title, string memory _process ,string memory _description)\n        public \n    {   // public permite ver esta funcion fuera de la blockchain\n        processCounter++;\n        processes[processCounter] = Process(\n            processCounter,\n            _title,\n            _process,\n            _description,\n            block.timestamp\n        );\n        emit ProcessCreated(\n            processCounter,\n            _title,\n            _process,\n            _description,\n            block.timestamp\n        );\n    }\n\n    /*function toggleDone(uint256 _id) public {\n        Task memory _task = tasks[_id];\n        _task.done = !_task.done;\n        tasks[_id] = _task;\n        emit TaskToggledDone(_id, _task.done);\n    }*/\n}\n",
  "sourcePath": "C:\\Users\\Lopez\\Desktop\\Edgar\\Ciclo II 2021\\CET\\Solidity - copia\\contracts\\ProcessesContract.sol",
  "compiler": {
    "name": "solc",
    "version": "0.8.10+commit.fc410830.Emscripten.clang"
  },
  "schemaVersion": "3.4.3",
  "updatedAt": "2021-11-23T03:47:15.332Z",
  "devdoc": {
    "kind": "dev",
    "methods": {},
    "version": 1
  },
  "userdoc": {
    "kind": "user",
    "methods": {},
    "version": 1
  }
}